:1000000057C000007CC000007AC0000078C000002B
:1000100076C0000074C0000072C0000070C0000014
:100020006EC000000C94DC086AC0000068C00000CC
:1000300066C000005FC5000062C0000060C0000034
:100040005EC000005CC000005AC0000058C0000044
:1000500056C0000054C0000052C0000050C0000054
:100060004EC000004CC0000020506F6C6F6C7500DB
:1000700033F720526F626F74004C696E6500666FD3
:100080006C6C6F776572003E6733323E3E6333328D
:10009000004C313620636465677265673400000088
:1000A00000000000001F1F1F1F1F1F1F9809990934
:1000B00011241FBECFEFD8E0DEBFCDBF11E0A0E01E
:1000C000B1E0E0E2F1E202C005900D92AC34B1077C
:1000D000D9F711E0ACE4B1E001C01D92A33CB10737
:1000E000E1F710E0CEEAD0E004C02297FE010E94C2
:1000F0004D0FCC3AD107C9F729D10C94841080CF89
:10010000883060F421E030E002C0220F331F8A956E
:10011000E2F7AAE2B0E0EBE2F0E025C08E3070F446
:1001200090E0089721E030E002C0220F331F8A954B
:10013000E2F7A4E2B0E0E5E2F0E015C0853170F44A
:1001400090E00E9721E030E002C0220F331F8A9525
:10015000E2F7A7E2B0E0E8E2F0E005C020E0A0E0CE
:10016000B0E0E0E0F0E06F3F19F48081822709C041
:10017000662319F08081822B04C09081822F8095A4
:10018000892380838C91822B8C93089580910F0119
:100190008F5F80930F010895CF93DF93CEE9D0E076
:1001A000CE0160E0C6D5CE01019661E0C2D5CE0198
:1001B000029662E0BED5CE01039663E0BAD5CE01C9
:1001C000049664E0B6D5CE01059665E0B2D5CE01C1
:1001D000069666E0AED518D6DF91CF910895AAE0D5
:1001E000B0E0E5EFF0E00C941D0F082F192F95E01B
:1001F000B92E7E010894E11CF11C85E6C82ED12C95
:10020000D701E0E1F1E08AE001900D928150E1F741
:10021000F801819191918F01B6010E94C30E6E0D7C
:100220007F1DFB01808187D5BA9451F72A96E9E0BA
:100230000C94390FAAE0B0E0E0E2F1E00C94200F5A
:1002400080ED97E00E949609A7DF88E690E000D64F
:1002500080E061E072D680E790E0FAD587E890E030
:10026000B7D488EE93E0EFD7CFD589E790E0F0D50B
:1002700080E061E062D68EE790E0EAD588EE93E018
:1002800014C07BD18C01C0D5B801882777FD80953B
:10029000982F34D680E091E0CCD580E061E04DD657
:1002A00083E091E0C6D584E690E0CDD780E17AD7AF
:1002B000882339F380E166D788EE93E0C4D70CEE4B
:1002C0001FEF0832110528F088E290E068ED7FEF1B
:1002D00004C088ED9FEF68E270E029D781E0ECD799
:1002E00084E190E0B0D70F5F1F4F0C33110549F741
:1002F00080E090E060E070E01AD78E010F5F1F4F42
:1003000011C0C80161E0DCD77C017ED5B70180E077
:1003100090E0F4D580E061E010D6C80160DF84E6AB
:1003200090E091D780E13ED7882359F380E12AD726
:100330006BD58BE091E07DD581E990E049D43AD44A
:100340008823E9F72A96E6E00C943C0FAAE0B0E097
:10035000ECEAF1E00C94220F6DDF8E010F5F1F4F6E
:10036000C80161E0ADD723E0883E920758F480E0F1
:1003700090E064E670E0DBD681E061E0C1DE87E01A
:1003800060E016C02BE0883B920740F484E690E0E2
:1003900064E670E0CCD681E061E007C084E690E0DE
:1003A00060E070E0C4D681E060E0AADE87E061E052
:1003B000A7DED6CF882321F480917C008F7D03C0F7
:1003C00080917C00806280937C00089580917C0005
:1003D00090E025E0959587952A95E1F7817008953D
:1003E00080917A0090E036E0959587953A95E1F70F
:1003F00081700895EBDF882321F02091790030E0AF
:1004000004C02091780030917900C90108958032AC
:10041000B0F497E890937A0090917C00292F2064A3
:10042000662311F0906C02C0922F9F77907E982BDC
:1004300090937C0080917A00806480937A00089584
:10044000A0E0B0E0E6E2F2E00C941E0F6B0160E089
:10045000DEDFC6DF8823E9F7E601EE24FF2487010B
:1004600080917A00806480937A00BADF8823E9F76C
:10047000C1DFA0E0B0E0E80EF91E0A1F1B1F2197A4
:1004800079F7C6019695879520E4C216D10440F409
:100490008E0D9F1D6C2D70E00E94C30ECB010DC010
:1004A000BC0180E090E06E0D7F1D801F911F9601C2
:1004B00040E050E00E94D70EC901CDB7DEB7E8E0BA
:1004C0000C943A0FA3E0B0E0E8E6F2E00C94230FBE
:1004D000BC0180E090E020911A0130911B0140E0C6
:1004E00050E00E94980E182F69837A839B836EDFF9
:1004F00069817A819B81882371F09B01412F592F5B
:10050000CA01B90161587F4F8F4F9F4F2FEF30E0E5
:1005100040E050E00DC09B01412F592FCA01B901A5
:1005200061507E4F8F4F9F4F2FEF33E040E050E000
:100530000E94D70EC9012396E3E00C943F0F80DFA1
:10054000C1CF1F93CF93DF9341DF182F80E032DFBD
:1005500086E06AE070E0F3DFEC01812F2BDF9E0183
:10056000220F331F2C0F3D1F2F5F3F4F36952795CE
:10057000C901DF91CF911F910895E3CF0895909124
:100580005101E0914D01F0914E01992311F08491B8
:1005900001C08081282F21542A3110F4805E0895F3
:1005A000803271F420914D0130914E01A9014F5FCD
:1005B0005F4F50934E0140934D012115310509F7CE
:1005C0000895EF92FF92CF93DF93D9DFC0E0D0E0A0
:1005D0001AC09E01220F331F93E0CC0FDD1F9A95A6
:1005E000E1F7C20FD31F992787FD9095C80FD91F38
:1005F000E09780914D0190914E01019690934E01AC
:1006000080934D01BCDF982F90539A3010F3CE01A8
:10061000DF91CF91FF90EF90089510926F0083E2E9
:100620008093800081E1809381001092820080E1BC
:1006300097E2909389008093880010928B0010922B
:100640008A00229A7894089580914C01882321F49D
:1006500081E080934C01E1CF0895A0E0B0E0E3E3B6
:10066000F3E00C941A0F8C015B01E42EEDDF109285
:100670001C0117FF04C01F77AAE0FA2E02C0FF2456
:10068000F394C0908100DD2428EFC222DD2488ECA1
:100690003F2D389FC001112480179107D8F4E8013D
:1006A00067E20131160710F0C0E1D7E2BE0176958E
:1006B000679580E090E06058794687469F4F9E019D
:1006C00040E050E00E94D70E890181E090E0C82A06
:1006D000D92A2CC098E2F99E902D112480E0892E11
:1006E000E4014E01982EE4018016910608F4E80119
:1006F000BE01769567959E0140E050E08F2D8A30CF
:1007000039F480E090E0605E734481449F4F06C0FE
:1007100080E090E060537D4E8C4E9F4F0E94D70E3C
:10072000890152E0852E912CC828D9282F2D2A30F6
:1007300039F4CE0105966AE070E00E94C30EEB0129
:1007400033E0C83ED30779F0BE0180E090E0950128
:1007500040E050E00E94980E28EE33E040E050E088
:100760000E94F90E01C0950110926F00C0928100A5
:10077000109389000093880040918800509189006F
:100780006E2D603108F06FE080E190E0861B9109EA
:10079000BA0102C0769567958A95E2F770938B004F
:1007A00060938A00309354012093530186B38FEFF6
:1007B00086BB81E080936F00CDB7DEB7ECE00C9490
:1007C000360F9B018F3F11F0442329F488EE93E00C
:1007D000B90140E049C0813130F0582F50515036B6
:1007E00018F05FE501C050E0852F6CE00E94B70E65
:1007F000A82FB0E0E4EFFFEFAE9FB001AF9F700D08
:10080000BE9F700D1124650F711D6C30710540F491
:10081000FB01EE0FFF1FEA5DFE4F6081718102C098
:1008200060E070E0873081F0082E02C0660F771F0D
:100830000A94E2F7823028F0CB0105966AE070E076
:100840000CC0605070480BC0CB01B6E0880F991FF8
:10085000BA95E1F7029665E070E00E94C30E403160
:1008600008F04FE0CB01B901F8CEA0E0B0E0EBE337
:10087000F4E00C94190FB0901D0180914F01882372
:1008800059F060915001662339F08FEF70E040E03D
:1008900098DF1092500129C1C0ECDDE5AA24A39491
:1008A00014E0712E00ED17E0B4E0EB2EF12CA4EF74
:1008B000CA2EA1E0DA2EFFE08F2E912C60DE20916F
:1008C0004D0130914E012F5F3F4F30934E012093E9
:1008D0004D018636F1F18736CCF4823609F4AAC090
:1008E00083367CF48E3349F18F333CF4813209F442
:1008F00082C08C3309F096C022C0813609F092C0C4
:1009000096C0843601F185360CF51BC08F3609F48C
:1009100045C0803744F48C3611F18D3659F1873655
:1009200009F080C019C0843709F441C0863709F442
:100930005CC0823709F076C036C0B394BFCFBA949A
:10094000BDCFEE2432C0EE2482E076C0EE2484E0F7
:1009500073C0EE2485E070C0EE2487E06DC031DE08
:10096000BC0190931F0180931E0180912001909102
:10097000210134C004DE8C3619F410924F0104C0FA
:10098000A0924F011092500180914D0190914E0123
:10099000019690934E0180934D0190CF12DEB82EB8
:1009A00080931D018BCFEE24E39480E045C009DEE7
:1009B000BC01CE010E94C30ECB01880F991F53E0EA
:1009C000660F771F5A95E1F7860F971F90932101C5
:1009D0008093200160911E0170911F010E94C30E3F
:1009E000709323016093220169CFEBDD9093250181
:1009F0008093240163CF70921D0110932101009315
:100A00002001F0921F01E0921E01D0922301C092BA
:100A10002201909225018092240110924F0144E01E
:100A2000B42E4CCF10924E0110924D015EC0EE24B8
:100A300089E002C0EE248BE09CE0B99EB02C11242A
:100A4000B80E9DDD8B3211F08332B1F480914D01EF
:100A500090914E01019690934E0180934D01B39475
:100A6000F0CF80914D0190914E01019690934E01EF
:100A700080934D01BA9483DD8D3299F3C0912201A8
:100A8000D09123018153883050F4C0912001D0913E
:100A9000210197DDBC01CE010E94C30EEB018E0146
:100AA0000BC080914D0190914E01019690934E01A3
:100AB00080934D01C00FD11F1695079560DD8E32D2
:100AC00081F380914F01882339F0CE019695879567
:100AD00080935001C81BD109EE2011F0BB24BA94B9
:100AE0008B2DBE01409124016CDECDB7DEB7EDE069
:100AF0000C94350F1F920F920FB60F9211242F9363
:100B00003F934F935F936F937F938F939F93AF9395
:100B1000BF93EF93FF9380915301909154019C01F7
:100B2000215030403093540120935301009709F530
:100B300010926F00789480918100887F816080930B
:100B4000810080E197E29093890080938800109261
:100B50008B0010928A0081E080931C0180914D01EE
:100B600090914E01009729F080915201882309F459
:100B70007CDEFF91EF91BF91AF919F918F917F911B
:100B80006F915F914F913F912F910F900FBE0F90FA
:100B90001F90189580911C01882351F081E02091CD
:100BA0004D0130914E012115310519F480E0089571
:100BB00081E00895EFCF089510926F0090934E0159
:100BC00080934D0181E080935101109250014DCEF0
:100BD000F3CF089581E090E06F9364E06A95F1F7B8
:100BE0006F910197C9F708950F931F93CF93DF93E8
:100BF0001AB157985A98289AC0E0D0E0EBDF5C9A77
:100C0000E9DF09B15C98E6DF5C9AE4DF5C9807FFF6
:100C100011C024969E0140E050E0809159019091CE
:100C20005A01A0915B01B0915C01281739074A076E
:100C30005B0720F31AB9DF91CF911F910F910895AF
:100C400065B190E0AC0141705070440F551F9C019C
:100C50002670307053E0220F331F5A95E1F7242B92
:100C60006D7C262B25B92BB18870907034E0880FED
:100C7000991F3A95E1F72F77282B2BB95C9AAADFB9
:100C80005C98A8CFA2E0B0E0E8E4F6E00C941F0F77
:100C9000182F4A83698384D0A7DFF4B005B1DAB096
:100CA000EBB0289869814A81662311F05A9A01C0F5
:100CB0005A9884B1826384B9579A413021F0812FC8
:100CC00082958F70BDDF812F8F70BADFDAB8EBB8F5
:100CD000F4B805B92296E7E00C943B0F60E042E0DF
:100CE000D1CF61E042E0CECFEF92FF921F93DF932E
:100CF000CF930F92CDB7DEB7660F660F660F482F02
:100D0000592F7A0110E0812F860F80646983E6DF16
:100D1000F7018491E6DF1F5F0894E11CF11C6981F3
:100D2000183089F70F90CF91DF911F91FF90EF90CE
:100D30000895DACF0895D5CF089560E041E0A2CFBD
:100D400080E197E2A0E0B0E08093590190935A01CE
:100D5000A0935B01B0935C01529A209A549A8EE161
:100D600090E071D283E0E9DF86E090E06CD283E02E
:100D7000E4DF82E090E067D283E0DFDF82E090E0B2
:100D800062D282E0DADF82E090E05DD288E2A6DF24
:100D900088E0A4DF81E0A2DF86E0A0DF8CE09ECFC8
:100DA00080915D01882321F481E080935D01C8CFAB
:100DB000089581E093DF809155019091560100974D
:100DC00011F1A0E0B0E208C0E0915501F0915601A8
:100DD000E20FF31FB083AF5F2A2F30E080913E0116
:100DE00090E0019760913F0170E0869FA001879F8E
:100DF000500D969F500D1124241735072CF3109297
:100E00005801109257010895D4CF0895EF92FF92A0
:100E1000CF93DF93E82EE7017E01F92EE70101C0B1
:100E200060DF89918823E1F7DF91CF91FF90EF9008
:100E30000895ECCF0895CF93DF93EC0102C051DF0A
:100E40002196FE0184918823D1F7DF91CF910895F7
:100E5000F2CF0895AAE0B0E0EFE2F7E0EDC79B0122
:100E6000AC011AE0EAE0CE2ED12CE12CF12C5E018F
:100E70000894A11CB11C022FCA01B901A701960157
:100E800096D71150F501E10FF11D005D922F990FDA
:100E9000892F880F880F890F081B008321153105C2
:100EA0004105510541F707C0F601E10FF11D8081B1
:100EB00018DF1F5F04C06E010894C11CD11C1A30DA
:100EC00098F32A96EAE0D4C7EF92FF920F931F930C
:100ED0007B018C0197FF0AC010950095F094E09477
:100EE000E11CF11C011D111D8DE2FBDEC801B701E3
:100EF000B1DF1F910F91FF90EF900895E5CF089516
:100F0000A5E0B0E0E5E8F7E09EC7182F80E8898308
:100F100080EC8A8384E98B8384ED8C83FE01E60F69
:100F2000F11D8181810F6D83D9DE109358016D8190
:100F3000609357012596E3E0A2C7E2CF0895FC0134
:100F400011821082138212821582148216826830F6
:100F500068F489E290E0918380838BE290E0938350
:100F600082838AE290E09583848311C06E30C0F45E
:100F700083E290E09183808385E290E09383828393
:100F800084E290E09583848370E06850704081E053
:100F900090E002C0880F991F6A95E2F78683089552
:100FA0006531B8F486E290E09183808388E290E036
:100FB0009383828387E290E09583848370E06E5010
:100FC000704081E090E002C0880F991F6A95E2F7B7
:100FD00086830895FC01A481B5818681662321F072
:100FE0009C91982B9C9308959C91809589238C9338
:100FF0000895FC016F3F31F4A281B3818C919681F9
:1010000089270CC0A281B3818681662321F09C913F
:10101000982B9C9308959C91809589238C93089597
:10102000A7E0B0E0E5E1F8E00CC7282FF62E8E012E
:101030000F5F1F4FC801622F82DFC8016F2DD9DFFC
:10104000C80161E0C7DF2796E5E017C7E0EBF0E0F5
:1010500083EF8083808184BDE1EBF0E082E08083D8
:10106000808185BDE4EBF0E010828081E3EBF0E06D
:101070008083808188BD88B587BD86E060E0D0DF51
:1010800085E060E0CDDF8BE060E0CADF83E060E018
:10109000C7CF80915E01882321F481E080935E01B7
:1010A000D5CF0895CF93DF93EC01F3DFD7FF05C0D1
:1010B000D095C195DF4F81E001C080E0CF3FD105E1
:1010C00019F014F0CFEFD0E0882319F018BCC7BD99
:1010D00002C0C8BD17BCDF91CF910895CF93DF93B5
:1010E000EC01D7DFD7FF05C0D095C195DF4F81E078
:1010F00001C080E0CF3FD10519F014F0CFEFD0E070
:10110000882329F01092B400C093B30004C0C093A8
:10111000B4001092B300DF91CF910895CF93DF9385
:10112000EB01C0DFCE01DADFDF91CF910895F6CF7A
:10113000089584B18D7C84B985B1826385B985E0D9
:1011400090E06F9364E06A95F1F76F910197C9F7AA
:10115000089580915F01882321F481E080935F01ED
:10116000E8CF08951F93182FF4DF83B18123E9F3AB
:101170008AE090E068D083B18123B9F383B1812301
:101180001F910895EFCF0895A1E0B0E0E9ECF8E0F9
:101190005BC68983DEDF93B190958981892321968F
:1011A000E2E06EC6F1CF08956F9364E06A95F1F7BF
:1011B0006F910197C9F708952F928F939F932FB640
:1011C00080916D0190916E01019680936D019093D5
:1011D0006E0190E080916F01891F80936F01909163
:1011E00075019C5F909375018091740180519742C5
:1011F000C0F090937501809374018091700190917B
:1012000071010196809370019093710190E080913B
:101210007201891F8093720180917301891F8093ED
:1012200073012FBE9F918F912F901895CF93DF93CD
:10123000EC0104C088EE93E0B7DF21972097D1F747
:10124000DF91CF910895F2CF0895E0E7F0E080813B
:101250008E7F8083A0EBB0E08C9183608C93A1EBB8
:10126000B0E08C91807F8C938C9182608C93B89A43
:1012700080818160808378940895809176018823AD
:1012800021F481E080937601E0CF0895F6DFE0E776
:10129000F0E080818E7F8083109270011092710146
:1012A00010927201109273011092750110927401E4
:1012B0008081816080830895682F87E791E0FCC476
:1012C0009C01462F87E791E0B90120E05EC30F93B0
:1012D000DF93CF9300D000D00F92CDB7DEB79C0143
:1012E000962FDE011196E0E4F1E085E001900D9289
:1012F0008150E1F7BE016F5F7F4F992329F087E7A7
:1013000091E045E00FEF04C087E791E045E003E19D
:101310006CD087E791E042D0B9DF0F900F900F902B
:101320000F900F90CF91DF910F91089560E0CFCF94
:10133000089587E791E0E2C46F9364E06A95F1F75E
:101340006F910197C9F70895A7E0B0E0E9EAF9E0E5
:1013500079C58C01FC0111821082138212821582E0
:10136000148217821682613118F080E1808702C0F2
:10137000FC016087F801208BCE010196642FDFDD30
:101380008F81F80181878B819C81938782878D81F2
:101390009E81958784872796E4E070C5FC01A4852B
:1013A000B585109771F08C919185892B8C93A285CE
:1013B000B3859C918185809589238C9388EC90E0FE
:1013C000BBCF0895FC01A485B585109769F08C9179
:1013D0009185892B8C93A285B3858C919185892BDE
:1013E0008C9388EC90E0A8CF0895A7E0B0E0EAEFF6
:1013F000F9E01AC57C011B01642F3901402F20E060
:10140000A3DF97012F5B3F4FF9011082D701AE5B3D
:10141000BF4F1C92C7018D5B9F4FFC011082F701EB
:101420007786668666242E010894411C511C6C0147
:101430005D01490128C0062D10E0F101E00FF11F08
:10144000C20160817CDD2F81F701E00FF11F218B4C
:1014500089819A81F801EE0FFF1FEE0DFF1D92A307
:1014600081A38332910511F4F40109C086329105FC
:1014700011F4F50104C08932910521F4F60180814F
:10148000822B80836394F70180856816A0F22796EB
:10149000E2E1E6C4A0E0B0E0EFE4FAE0CAC4EC01A7
:1014A0005B01FC01EF5BFF4F9080FC01EE5BFF4FA7
:1014B0008080FC01ED5BFF4F708080E009C0E82F69
:1014C000F0E0EE0FFF1FEA0DFB1D118210828F5F0F
:1014D00098858917A0F384B121E4E22EF12CEC0E5B
:1014E000FD1ED7019C91892B84B987B18E010E5BBB
:1014F0001F4FF8019081892B87B98AB193E4C92ED7
:10150000D12CCC0EDD1ED6019C91892B8AB985B1D8
:10151000F7019081892B85B988B1D8019C91892BDD
:1015200088B98BB1F6019081892B8BB98AE090E064
:1015300003DF94B1D7018C918095892384B997B149
:10154000F80180818095892387B99AB1D6018C9161
:10155000809589238AB995B1F70180818095892387
:1015600085B998B1D8018C918095892388B99BB1B0
:10157000F6018081809589238BB9C090B000E090FE
:10158000B1008091B00083608093B00082E08093CE
:10159000B1000091B20080E090E039C02091B2002B
:1015A000201B820F911D020FF3B0F91409F04DC0FA
:1015B00096B0981409F049C029B1271509F045C023
:1015C00024C0212F30E0A901440F551FF501E40F7D
:1015D000F51F608171816115710599F44C0F5D1FD4
:1015E000DA0191964D915C919297DA014C912C0F12
:1015F0003D1FD90151962C915197422311F49183AB
:1016000080831F5F28851217E0F2892C9F2C2E857E
:101610003F858217930710F2C092B000E092B100AC
:1016200020E00FC0E22FF0E0EE0FFF1FEA0DFB1DE0
:1016300080819181009721F48E859F85918380839D
:101640002F5F8885281770F305C0F3B096B079B086
:1016500010E0D8CFCDB7DEB7EDE007C4EF92FF9230
:101660000F931F93CF93DF93FC019B0100917C00AC
:1016700010917A00E7B0F8B080917A0086FDFCCF37
:1016800080E00AC0A82FB0E0AA0FBB1FA20FB31FB3
:1016900011961C921E928F5F9085891798F397B1CF
:1016A00082A18095892387B998B182A180958923E9
:1016B00088B987E880937A0070E029C0DF01A60F1F
:1016C000B11D51968C915197806480937C008091DC
:1016D0007A00806480937A0080917A0086FDFCCF46
:1016E000A62FB0E0AA0FBB1FA20FB31F4091780036
:1016F000509179008D919C911197840F951F1196AF
:101700009C938E936F5F80856817C0F27F5F81A185
:10171000781710F460E0F7CF40E013C0C42FD0E09A
:10172000CC0FDD1FC20FD31F61A170E0CB019595D7
:101730008795A881B9818A0F9B1F25D379836883F8
:101740004F5F8085481750F300937C0010937A0018
:10175000F8B8E7B8CDB7DEB7E6E08EC3A0E2B0E0F8
:10176000E3EBFBE06CC38C017B01D42E842F815012
:10177000823010F4C80126DED80150968C91509723
:10178000882371F4C801B70185DEC80107DEBD2DCD
:10179000B230B9F5C801BE016F5F7F4F7BDE0DC06F
:1017A000C801B7015BDFC801F9DDED2DE23049F575
:1017B000C801BE016F5F7F4F51DF60E0AE014F5F38
:1017C0005F4F1BC0862F90E0880F991FF701E80F2D
:1017D000F91F840F951FD8011E962D913C911F97DC
:1017E000DC018D919C911197281B390B808191818F
:1017F000820F931F918380836F5FF8018085681744
:1018000008F3A096E7E037C38F929F92AF92BF9202
:10181000CF92DF92FF920F931F93CF93DF93EC0150
:10182000C62E072FF42E423011F0FF2051F48C8188
:101830009D81009709F49DC08E819F81009709F4D6
:1018400098C08F2D8150823050F488819981009703
:1018500009F48FC08A819B81009709F48AC0CE0168
:101860006C2D702F4F2D7ADFAC2CB02E00E010E0E5
:101870008824992478C08F2D813059F4EA81FB8126
:10188000E00FF11FC080D180E881F981E00FF11FE6
:101890000DC08C819D81FF2061F4EE81FF81E00FFE
:1018A000F11FC080D180800F911FFC0140815181C8
:1018B0002BC0800F911FFC0180819181E881F9810B
:1018C000E00FF11F40815181CE84DF84841795079A
:1018D00010F4A60104C04C0D5D1D481B590BEE8190
:1018E000FF81E00FF11F80819181EA81FB81E00F90
:1018F000F11F20813181CE84DF848217930720F08D
:10190000C20ED31EC81AD90AC41AD50AC1F0F501ED
:101910006081718180E090E09A0140E050E0621BBC
:10192000730B840B950B28EE33E040E050E000D2BF
:10193000960140E050E05DD237FD0AC002C020E0D1
:1019400030E0F3E0293E3F072CF028EE33E002C000
:1019500020E030E0F501219331935F010894811C70
:10196000911C0E5F1F4F888590E0881699060CF435
:1019700082CFDF91CF911F910F91FF90DF90CF9099
:10198000BF90AF909F908F900895A5E0B0E0EAECF3
:10199000FCE04AC24C01C62EE72E2D8335DFD40170
:1019A00018964C901897DE2C642D70E080E090E043
:1019B00028EE33E040E050E0BBD169837A838B832B
:1019C0009C83EE24FF2487016624772488249924AD
:1019D0005401552435C0F6013081218142E0242E86
:1019E000312CC20CD31CC901492F582F1A012D814B
:1019F000222329F088EE93E0821993091C0199ECC7
:101A0000291631042CF4A3E32A1631048CF002C009
:101A100055245394B101882777FD8095982FA8010C
:101A2000970186D1860E971EA81EB91E620C731CE4
:101A300088EE93E0A0E0B0E0E80EF91E0A1F1B1F3D
:101A400089819A81AB81BC81E816F9060A071B07D8
:101A500011F65520F1F4552408944108510824EF5B
:101A600031E0429EC001439E900D529E900D112484
:101A70002091BB013091BC0128173907ACF088EEEA
:101A800093E0489E9001499E300D589E300D1124E0
:101A90000DC0930140E050E0C501B40188D120930E
:101AA000BB013093BC0102C020E030E0C9012596A3
:101AB000E2E1D6C1A7E6B0E0EFE5FDE0B5C18C01FB
:101AC0004B016A01A6962FAFA697DA018D919C91E2
:101AD00011970097E1F4F801808590E0880F991F35
:101AE000E0D1D60111969C938E93009709F4E0C043
:101AF000FC0180E090E003C0119211920196D801A0
:101B000018962C91189730E082179307ACF3F401E4
:101B100080819181009789F0EE24FF245E01089472
:101B2000A11CB11CB1E46B2E712C6C0E7D1EA1E2C8
:101B30004A2E512C4C0E5D1E22C0D80118968C9155
:101B400090E0880F991FADD1F401918380830097B5
:101B500009F4AEC0FC0180E090E0D80107C01E96F9
:101B60002D913C911F9721933193019618962C91BA
:101B7000189730E08217930794F38D01CDCFC801F9
:101B8000B501A6964FADA697E9DDD80118968C91C0
:101B90001897E82FF0E0A596FFAFEEAFA5971301D9
:101BA000F501A3965FAE4EAEA397930140E050E0DF
:101BB000A8965FAE4EAEA89737C0E114F10461F06D
:101BC000A896AEADBFADA8976D917C91119780811D
:101BD00091816817790760F480819181A896AEADF4
:101BE000BFADA89711969C938E93E114F10449F030
:101BF000D9016D917C91119780819181861797070A
:101C000028F480819181D9018D939C934F5F5F4F20
:101C10002E5F3F4F3296A8968EAD9FADA897029645
:101C2000A8969FAF8EAFA897A596AEADBFADA5976E
:101C30004A175B0714F20894E11CF11CBAE0EB169A
:101C4000F10409F09CCF80E090E02CC0F1014191BB
:101C500051911F01BC01660F771FD601ED91FC91D8
:101C60001197E60FF71F208131812417350710F4F3
:101C700051834083A396EEADFFADA397419151915F
:101C8000A396FFAFEEAFA397D401ED91FC9111970E
:101C9000E60FF71F208131814217530710F451835B
:101CA00040830196F801208530E08217930774F293
:101CB000C959DF4FE2E1D4C01F93CF93DF93EC010A
:101CC000162F862F8150823050F4AE014E5F5F4F49
:101CD000CE01BE0121E0EEDE123019F00BC066230A
:101CE00049F4BE016C5F7F4FAE014A5F5F4FCE018A
:101CF00020E0E0DEDF91CF911F910895CF93DF9335
:101D0000EC018A819B81009709F065D18E819F81CA
:101D1000009709F060D188819981009709F05BD123
:101D20008C819D81009709F056D1DF91CF91089564
:101D3000629FD001739FF001829FE00DF11D649FAF
:101D4000E00DF11D929FF00D839FF00D749FF00D3B
:101D5000659FF00D9927729FB00DE11DF91F639FDC
:101D6000B00DE11DF91FBD01CF0111240895991B8C
:101D700079E004C0991F961708F0961B881F7A9582
:101D8000C9F780950895AA1BBB1B51E107C0AA1F84
:101D9000BB1FA617B70710F0A61BB70B881F991F0C
:101DA0005A95A9F780959095BC01CD010895A1E2BF
:101DB0001A2EAA1BBB1BFD010DC0AA1FBB1FEE1FC5
:101DC000FF1FA217B307E407F50720F0A21BB30B10
:101DD000E40BF50B661F771F881F991F1A9469F78C
:101DE00060957095809590959B01AC01BD01CF01E8
:101DF000089597FB092E05260ED057FD04D0D7DF96
:101E00000AD0001C38F450954095309521953F4FED
:101E10004F4F5F4F0895F6F79095809570956195B7
:101E20007F4F8F4F9F4F08952F923F924F925F9217
:101E30006F927F928F929F92AF92BF92CF92DF92DA
:101E4000EF92FF920F931F93CF93DF93CDB7DEB73F
:101E5000CA1BDB0B0FB6F894DEBF0FBECDBF0994D3
:101E60002A88398848885F846E847D848C849B842A
:101E7000AA84B984C884DF80EE80FD800C811B8138
:101E8000AA81B981CE0FD11D0FB6F894DEBF0FBE67
:101E9000CDBFED010895EE0FFF1F0590F491E02DE9
:101EA0000994CF93DF938230910510F482E090E0A3
:101EB000E091C101F091C20140E050E020E030E04B
:101EC00026C06081718168177907E0F0681779078B
:101ED00081F4828193812115310531F0D901139666
:101EE0009C938E9312972BC09093C2018093C10153
:101EF00026C04115510519F06417750718F4AB0198
:101F0000E901DF019F0172816381E72FF62F30978E
:101F1000C1F64115510501F1481B590B44305105DB
:101F200080F412968D919C911397209719F09B83C2
:101F30008A8304C09093C2018093C101FD0132964F
:101F400046C0FD01E40FF51F81939193425050402C
:101F500011965C934E933BC02091BF013091C0011C
:101F60002115310541F4209147013091480130930A
:101F7000C0012093BF012091490130914A012115F0
:101F8000310541F42DB73EB74091450150914601CE
:101F9000241B350BE091BF01F091C001E217F3075C
:101FA000A0F42E1B3F0B2817390778F0AC014E5FC9
:101FB0005F4F2417350748F04E0F5F1F5093C00145
:101FC0004093BF018193919302C0E0E0F0E0CF0124
:101FD000DF91CF910895CF93DF93009709F491C0DB
:101FE000FC013297138212826091C1017091C2018B
:101FF0006115710581F420813181280F391F80918D
:10200000BF019091C0018217930799F5F093C00129
:10201000E093BF0176C0DB0180E090E002C0CD011B
:10202000D901AE17BF0748F412962D913C91139732
:1020300021153105A1F7CD0121C0B383A283EF01A2
:10204000499159919E01240F351FA217B30779F4C6
:102050002D913C911197240F351F2E5F3F4F3183F7
:10206000208312962D913C911397338322830097FE
:1020700029F4F093C201E093C10143C0DC0113963F
:10208000FC93EE9312974D915D91A40FB51FEA1743
:10209000FB0769F420813181240F351F2E5F3F4FEC
:1020A000EC0139832883228133813B832A83E0E05A
:1020B000F0E002C0FB01BC01DB0112968D919C9106
:1020C00013970097B9F79B012E5F3F4F8D919C911D
:1020D0001197820F931F4091BF015091C001481783
:1020E000590779F4309729F41092C2011092C10176
:1020F00002C013821282225030403093C0012093DC
:10210000BF01DF91CF91089510E0CEEAD0E003C087
:10211000FE01C3DE2296C03BD107D1F7F894FFCF72
:102120006D56005072657373204200476F210001A5
:10213000200000010203040506FF881301040400C7
:10214000D007F4010F009C01B501CF01EA0107029D
:102150002602470269028E02B502DE020A03020865
:0C2160000E0F1011122000C3010000003F
:00000001FF
